:020000040000fa
:04025c0078390000ed
:020000040000fa
:040210007839000039
:020000040000fa
:0402740078390000d5
:020000040000fa
:040334007839000014
:020000040000fa
:04035c0078390000ec
:020000040000fa
:0402700078390000d9
:020000040000fa
:04022c00783900001d
:020000040000fa
:04023c00783900000d
:020000040000fa
:0402bc00783900008d
:020000040000fa
:0402c0007839000089
:020000040000fa
:0402c4007839000085
:020000040000fa
:0402c8007839000081
:020000040000fa
:0402800078390000c9
:020000040000fa
:0402840078390000c5
:020000040000fa
:04039c0078390000ac
:020000040000fa
:040228007839000021
:020000040000fa
:0402780078390000d1
:020000040000fa
:04029c0078390000ad
:020000040000fa
:0402fc00783900004d
:020000040000fa
:040300007839000048
:020000040000fa
:0402600078390000e9
:020000040000fa
:0402640078390000e5
:020000040000fa
:04027c0078390000cd
:020000040000fa
:0402880078390000c1
:020000040000fa
:0402b0007839000099
:020000040000fa
:0402b4007839000095
:020000040000fa
:0402b8007839000091
:020000040000fa
:040238007839000011
:020000040000fa
:0402e0007839000069
:020000040000fa
:0402e4007839000065
:020000040000fa
:0402e8007839000061
:020000040000fa
:0402f4007839000055
:020000040000fa
:0402f8007839000051
:020000040000fa
:040304007839000044
:020000040000fa
:040308007839000040
:020000040000fa
:04030c00783900003c
:020000040000fa
:040310007839000038
:020000040000fa
:040314007839000034
:020000040000fa
:040318007839000030
:020000040000fa
:04031c00783900002c
:020000040000fa
:040324007839000024
:020000040000fa
:040328007839000020
:020000040000fa
:040338007839000010
:020000040000fa
:04033c00783900000c
:020000040000fa
:040340007839000008
:020000040000fa
:040344007839000004
:020000040000fa
:04034c0078390000fc
:020000040000fa
:0403500078390000f8
:020000040000fa
:0403540078390000f4
:020000040000fa
:0403580078390000f0
:020000040000fa
:0403600078390000e8
:020000040000fa
:0403640078390000e4
:020000040000fa
:0403680078390000e0
:020000040000fa
:040348007839000000
:020000040000fa
:04026c0078390000dd
:020000040000fa
:0402f0007839000059
:020000040000fa
:04037c0078390000cc
:020000040000fa
:040218007839000031
:020000040000fa
:040230007839000019
:020000040000fa
:040240007839000009
:020000040000fa
:04028c0078390000bd
:020000040000fa
:0402900078390000b9
:020000040000fa
:0402cc00783900007d
:020000040000fa
:0402d0007839000079
:020000040000fa
:0402d4007839000075
:020000040000fa
:0402d8007839000071
:020000040000fa
:0403980078390000b0
:020000040000fa
:04020c00783900003d
:020000040000fa
:0402dc00783900006d
:020000040000fa
:040320007839000028
:020000040000fa
:040208007839000041
:020000040000fa
:04021c00783900002d
:020000040000fa
:040220007839000029
:020000040000fa
:040224007839000025
:020000040000fa
:0402680078390000e1
:020000040000fa
:0402ec00783900005d
:020000040000fa
:0403780078390000d0
:020000040000fa
:04024c0078390000fd
:020000040000fa
:0402500078390000f9
:020000040000fa
:0402a80078390000a1
:020000040000fa
:0402ac00783900009d
:020000040000fa
:0403900078390000b8
:020000040000fa
:0403940078390000b4
:020000040000fa
:040214007839000035
:020000040000fa
:040234007839000015
:020000040000fa
:040244007839000005
:020000040000fa
:040248007839000001
:020000040000fa
:0402940078390000b5
:020000040000fa
:0402980078390000b1
:020000040000fa
:04032c00783900001c
:020000040000fa
:0402540078390000f5
:020000040000fa
:0402580078390000f1
:020000040000fa
:040330007839000018
:020000040000fa
:0402a00078390000a9
:020000040000fa
:0402a40078390000a5
:020000040000fa
:04036c0078390000dc
:020000040000fa
:0403700078390000d8
:020000040000fa
:0403740078390000d4
:020000040000fa
:0403840078390000c4
:020000040000fa
:0403880078390000c0
:020000040000fa
:04038c0078390000bc
:020000040000fa
:0403800078390000c8
:020000040000fa
:080000001011040000000000d3
:020000040000fa
:102220000fc820000eff27000e01880000000000ec
:10223000000020000000e000020032000001200049
:102240002002880014000700850007000000e0005d
:1022500003003a00e08f2300010020000200370055
:102260000000200001002000810f700001003200fa
:1022700014000700000020000000e000020032000f
:1022800000000200000000003628020000000000ec
:102290000040da000000fe004440a9006008200071
:1022a0000000e000030032000020200090018800c0
:1022b0004440a800000006008a1f78008b1f7800a9
:1022c00000000600a1028800800478000000eb00f6
:1022d0001f003700e284440054a0b4009905ba00fe
:1022e000e284440054a0b4009906ba00e284440099
:1022f00054a0b4000006eb00476fde00fd07b200fb
:10230000ae018800636ce10003003a00eaff0700b9
:102310000000eb000e003700606ce10008003a009e
:10232000004deb000a05e800020039003420ec0003
:102330000af0a0008b05e900f9ff3e000400370019
:102340006168e100010032000086eb000b0007002d
:1023500019c7ba001905ba000e04e00003003a00dc
:102360000a00e000dbff3a0000000600fe07b200b2
:10237000ae0288008a047800f5ff37000cd0a30075
:10238000e20f4d001c00390089027800354dba007b
:102390000a05e800020039003420ec000af0a00031
:1023a0008b05e9000f003200254dba000a05e80050
:1023b000020039003420ec000af0a0008b05e9008f
:1023c000080032000c00e0000600320015cdba0013
:1023d0000a05e800020039003420ec000af0a000f1
:1023e0008b05e9008984e80054a0b4000b00e000ec
:1023f000e2ff3a00000006009902ba00055d78008d
:102400008b05e900f7ff3200c82ade00055d780081
:102410008b05e900f3ff32000c00e000f1ff320011
:1024200019ddba00eeff3700ba2d040000000000ed
:10243000762d040000000000dc2d040000000000e8
:102440006632040000000000383204000000000082
:10245000d0320400000000009e32040000000000a2
:102460000000050003f0a200889fbe008a9fbe0006
:102470008c1f78001b010700220133006450e1002b
:102480004f0032006420e1005200320003826c00f1
:1024900007003b000905d0000306d000820f54005e
:1024a0000c065d000200390002003200890178004c
:1024b000030678008582550004003d000003fd00fe
:1024c0008103fd008502ea008b854200840f7200c3
:1024d00002003b0060001000e08018006011b800ae
:1024e0000005eb007a28e1000a00390006007800b8
:1024f000c75ddd00f707b200878075002d0037004b
:10250000828171000a017800610560008180d1003c
:102510000080d3008502e900f9ff3b00060440007b
:102520008784480002003b0060041400e0841c0023
:102530000988a300070032008a817100828171003e
:10254000610164008904d1000884d3008b05e80090
:10255000170037000978a30013003a000b00e000d1
:10256000130034008b05e9000804440089844c0002
:102570000a4474000978a3000d003a000b00e00043
:10258000070034008b05e9000804440089844c00ee
:1025900001003a000b0020000978a300f7ff320089
:1025a0000001eb0002003700828171000a0178000f
:1025b000910007000cf0a70001f0a000da0037003e
:1025c0006420e10002003a00838f6c00da003300df
:1025d0000801be000200be00d3003700889fbe0085
:1025e0008a9fbe008c1f7800be000700c500330024
:1025f00003866c006450e1002e0032006420e1008c
:10260000330032006150e1002f0032006120e10010
:102610003100320085855500eb07b000090020002d
:1026200008042000050037000804440089844c0099
:102630000a0031000603430087834b00000153006a
:1026400081815b00f8ff33000203be000800a00098
:102650000804440089844c00f6ff3900c639dd00c7
:102660008301730001003200130020008904d100af
:102670000884d3000998a300050032000800a700d1
:102680000300a0008904d1000884d3008b05e80072
:102690008904d1000884d3000001eb000281d2003c
:1026a0005500070001f0a1000cf0a70001f0a00008
:1026b0009d0037006420e1009f0032000801be0049
:1026c0000200be00f7ff37006120e1009a003200ef
:1026d0006000b800f3ff37000000200001f8270079
:1026e000f0ff370014002000da003700f4ff2f005d
:1026f000d80037000001be00650007000470a70085
:1027000003f0a1006509b100160032000d0035008c
:102710006828e10006003500f0ff2f00f1ff2700d8
:102720000300e00013003b0001002800000005004a
:1027300000004000818048008502e900fcff3a006b
:1027400008003700f88f420002003c008000eb00d8
:10275000000005008100d1000080d3008502e80060
:10276000fcff3a000300e00002003b0060001000a4
:10277000e0801800000006000001be0044000700d1
:102780000470a70003f0a10003f8a30013003a00af
:102790006509b10010003200090035006928e10028
:1027a0000200350001002800000005000000400084
:1027b000818048008502e900fcff3a000000060025
:1027c000f88f4200050035008100d1000080d30061
:1027d0008502e800fcff3a00000006008000eb00e4
:1027e000000005004f89de0082017800b400370048
:1027f0006011b800c20037008100200061805500e0
:102800000b003d000b00200061fe2f000100e100e5
:102810001d00340082817100610164008904d100cf
:102820000884d3000000e800faff3a00710020009d
:1028300061006400030070000200600009003200c3
:1028400061044400e0844c000988a50005003200c2
:102850008b05e8006808e10002003a008904d10015
:102860000884d300f20f20000258e10005003d006b
:10287000c75ddd00f907b2008980750008007800a7
:10288000000006000bf827008b0078000000050010
:10289000c70ade00f107b200f50fb20008003200ef
:1028a000e1cf4200020032000170a00024000500c8
:1028b000810f70000100320004080500440005008b
:1028c000810f700002003a00140005008502e90043
:1028d0000000400081c04800fcff3b000170a000e8
:1028e000240005000004be00e9ff07000003be004d
:1028f0000405be000200be00e5ff0700844f75001e
:10290000000006000200be006450e1000500360031
:102910006420e100020036000968a30001003a00cb
:102920000800be000160a0004f0678004f05be0001
:102930004f04be0000000600f0ff2f00f1ff27004b
:10294000f9ff3700889fbe008a9fbe008c1f780069
:10295000e4ff0700ebff330003866c006450e100e6
:10296000240032006420e100270032006150e100c1
:10297000220032006120e100210032008b854200fc
:10298000eb07b1000134b800003ab8000804420077
:1029900089844a00013ab8000030b80088804000bd
:1029a00009014a0004003300000040008180480013
:1029b000020149008b05e900c909dd0083017000af
:1029c0000100320013002000c814de004814dd00ae
:1029d0004709de001200b200c808de00088470005b
:1029e00085ff070001f0a1000cf0a70001f0a00096
:1029f000cdff37006120e100cfff32000801be00ab
:102a00000200be00f7ff37006150e100fcff3a0012
:102a1000c9ff37006022b800060220000000d00085
:102a20008180d2000482d2008582d2000000a00002
:102a30000202520083825a00030031000202420067
:102a400083824a000000a1000603e900f3ff3a0078
:102a500000000600889fbe008a9fbe00841f780089
:102a6000a0ff07004f00780011003300f0ff2f0097
:102a7000838f6c0006003b00040565000a00a70078
:102a80000800370009f0a6001000200008003700f9
:102a9000820f5400838f5c00030039001000200077
:102aa00001003e000000200009f0a7000000ea003d
:102ab0004f05be004f04be000000e000000006000d
:102ac000881f7800030478000300e00007003d0041
:102ad00060001000e080180060011900e08119001a
:102ae00002003b0001f02d00030037000400070046
:102af00008f0a70001f0a0004f04780000000600d5
:102b0000889fbe008a9fbe00008270000402710090
:102b100004827100260032000004be000200be00e4
:102b20006011b8006b092000950220000182cf00df
:102b30000a0039000541b1000082cf0007003900ca
:102b40000541b1000982cf00040039000541b10000
:102b50000882cf00010039000541b1000542520052
:102b6000120032000a003b008281710061016400a2
:102b70008100d1000080d3008984d3000884d30071
:102b80008b05e8000442e800f7ff3a000700370031
:102b90000804440089844c000000480081804800fb
:102ba0008b05e9000442e900f9ff3a0012ff070033
:0c2bb0004f05be004f04be0000000600f0
:020000040000fa
:020000040002f8
:04aff400031c00003a
:020000040000fa
:020000040002f8
:04aff8000f890000bd
:020000040000fa
:020000040002f8
:04affc007f3e000094
:020000040000fa
:1020000010110400000000007839040000000000f6
:102010007839040000000000783904000000000056
:102020007839040000000000783904000000000046
:102030007839040000000000783904000000000036
:102040007839040000000000181f040000000000a0
:102050007839040000000000783904000000000016
:10206000461f040000000000741f04000000000070
:1020700078390400000000007839040000000000f6
:1020800078390400000000007839040000000000e6
:1020900078390400000000007839040000000000d6
:1020a00078390400000000007839040000000000c6
:1020b00078390400000000007839040000000000b6
:1020c00078390400000000007839040000000000a6
:1020d0007839040000000000783904000000000096
:1020e000a21f040000000000d01f04000000000038
:1020f0007839040000000000783904000000000076
:102100007839040000000000783904000000000065
:102110007839040000000000783904000000000055
:102120007839040000000000783904000000000045
:102130007839040000000000783904000000000035
:102140007839040000000000783904000000000025
:102150007839040000000000783904000000000015
:102160007839040000000000783904000000000005
:1021700078390400000000007839040000000000f5
:1021800078390400000000007839040000000000e5
:1021900078390400000000007839040000000000d5
:1021a00078390400000000007839040000000000c5
:1021b00078390400000000007839040000000000b5
:1021c00078390400000000007839040000000000a5
:1021d0007839040000000000783904000000000095
:1021e0007839040000000000783904000000000085
:1021f0007839040000000000783904000000000075
:102200007839040000000000783904000000000064
:102210007839040000000000783904000000000054
:020000040000fa
:1000080004100000081000000c1000001010000080
:10001800141000000c1100000c1100000c1100005d
:10002800181000001c100000201000002410000010
:100038000c110000281000002c10000030100000e7
:1000480034100000381000003c1000004010000080
:1000580044100000481000000c1100000c110000b2
:100068004c10000050100000541000005810000000
:100078005c1000000c11000060100000641000000b
:100088000c110000681000006c10000070100000d7
:1000980074100000781000007c1000008010000030
:1000a80084100000881000000c1100000c110000e2
:1000b8000c1100008c10000090100000941000003b
:1000c800981000009c100000a0100000a410000070
:1000d800a8100000ac1000000c1100000c1100006a
:1000e8000c110000b0100000b41000000c1100004a
:1000f8000c110000b8100000bc1000000c1100002a
:100108000c1100000c1100000c1100000c11000073
:100118000c1100000c110000c01000000c110000b0
:100128000c110000c4100000c8100000cc10000022
:100138000c1100000c1100000c1100000c11000043
:10014800d01000000c1100000c1100000c11000070
:100158000c110000d41000000c1100000c1100005c
:100168000c110000d8100000dc100000e0100000a6
:10017800e4100000e8100000ec100000f01000008f
:10018800f4100000f8100000fc100000001100003e
:1001980004110000081100000c1100000c110000ef
:1001a8000c1100000c1100000c1100000c110000d3
:1001b8000c1100000c1100000c1100000c110000c3
:1001c8000c1100000c1100000c1100000c110000b3
:1001d8000c1100000c1100000c1100000c110000a3
:1001e8000c1100000c1100000c1100000c11000093
:0801f8000c1100000c110000c5
:020000040000fa
:102bbc0012010000000200000000000000400000b4
:102bcc006666000003000000000000000102000027
:102bdc0000010000090200001200000001010000c9
:102bec0000a00000320900000400000000000000fa
:102bfc00ff000000ff0000000403000009040000b7
:102c0c001a0300004f0000006c0000006900000077
:102c1c006e00000020000000430000006f00000068
:102c2c006c0000006c0000006500000067000000f4
:102c3c006500000044030000450000006c0000002b
:102c4c006500000063000000610000006e000000e1
:102c5c0069000000730000006d00000073000000ac
:102c6c00200000004d000000690000006e00000014
:102c7c006900000070000000720000006f0000008e
:102c8c006a00000065000000630000007400000092
:102c9c002000000032000000200000004600000070
:102cac0069000000720000006d0000007700000059
:0c2cbc00610000007200000065000000d4
:020000040000fa
:102cc8000400fa009424a8009624ef00f00f2000d6
:102cd800702488009424a900a04a200010079800b6
:102ce8000040eb00004f7800070037001e80fb0013
:102cf800000040009e009000008040008000eb0033
:102d0800010878001e4fe8001e407800ef4f500081
:102d1800f6ff3600d00020005025880000c02000b3
:102d280001c4b30001487800a0aa20001060880000
:102d380010c0200081c8b30001487800a0ae200070
:102d48003060880050c0200081c0b300014878007e
:102d5800a624ef00a824ef0000c020004800de00f1
:102d6800c02488008644a80086e4a8008804a80037
:102d780094a4a9003d68ef004068ef0010c0b300bc
:102d88003ee8b700a0b2200080c0eb000148780000
:102d9800b0b2200080c0eb000148780000000000bd
:102da800a124800000042000008060000000e000f2
:102db800fbff3a000080fa00000006000600fa0057
:102dc80050248000620060000000e000050032002e
:102dd800f00f200070248800200020005024880074
:102de8009000370050248000640060000000e0007c
:102df800030032004000200050248800890037007a
:102e080050248000700060000000e00003003200e1
:102e180000012000502488008200370051248000df
:102e280000022000008060000000e0000300320083
:102e380000022000502488007a00370051248000c6
:102e480000082000008060000000e000030032005d
:102e580000082000502488007200370050248000a9
:102e6800610060000000e000340032003d68ef00bf
:102e7800080037008000200050248800000000006f
:102e8800000000000000000000000000000000003a
:102e98000000000050248000680060000000e0008e
:102ea800f4ff3a00a04a2000100798000040eb0009
:102eb800004f7800070037001e80fb00000040002c
:102ec8009e009000008040008000eb000108780020
:102ed8001e4fe8001e407800ef4f5000f6ff360006
:102ee80000c0200001c4b30001487800a0aa200057
:102ef8001060880010c0200081c8b3000148780025
:102f0800a0ae20003060880050c0200081c0b3000f
:102f1800014878009624ef00f00f20005024880024
:102f2800d00020005025880010c0b30040e8b7004a
:102f380010c0b3003ee8b7003a00370050248000c4
:102f4800680060000000e000360032009024800035
:102f58004300de00c200dd0000c020000080400009
:102f6800200798002e0090001040900031e8b7002c
:102f78002e0090001040780030e8b7002e00900036
:102f88001000900090418800902480000040780054
:102f98003fe8b70080002000502488003c68ef001c
:102fa80031c8bf008080fb00c003200000806000a3
:102fb80041022000810f5000080032004103200028
:102fc800810f500003003200e40f5000050032006a
:102fd800050037001500070003003700da02070074
:102fe800010037000c0307003cc8bf000080fb004d
:102ff80061006000004078000004e0000900320031
:1030080000c0200001c4b3000148780050c020006f
:1030180041c8b3000148780010c0200041c8b3007f
:10302800014878000080fa00000006000200fa005b
:1030380091418000010f78001e00780090407800d0
:1030480040832000014878001e0fe8001e00780029
:103058009040780040832000114098001e0fe8003f
:103068001e0078009040780040832000214098009e
:103078001e0fe8001e007800904078004083200072
:10308800314098001e0fe8001e007800904078003c
:1030980040832000414098001e0fe8001e00780081
:1030a8009040780040832000514098001e0fe800af
:1030b8001e0078009040780040832000614098000e
:1030c8001e0fe8001e007800904078004083200022
:1030d800714098001e0fe80000c0200001c4b30032
:1030e8000148780050c0200081c0b3000148780032
:1030f80040832000104078000004e00006003500fe
:1031080040832000300090000000e0000200320000
:1031180080ccb3000100370080c8b30011c0200084
:103128008048780094a4a900a0b2200080c0eb00d9
:1031380001487800b0b2200080c0eb000148780058
:1031480040832000104078008080fb0000062000ab
:10315800008060000000e00004003200010420004c
:10316800810f5000030032000400370008000700f8
:1031780005003700fa060700030037003cc8bf0007
:103188000004a0003ce8b7000080fa000000060038
:103198000600fa0040832000104090000080fb00e9
:1031a800e60f500077013200e60f50000c003c009b
:1031b800e10f5000bf003200e10f500003003c0057
:1031c8000000e000120032005a023700e30f5000fe
:1031d800b8003200e50f50004a01320055023700ae
:1031e800e90f5000ed013200e90f500003003c00e8
:1031f800e80f5000de0132004e023700ea0f50009f
:1032080010023200eb0f5000290232004902370049
:1032180040832000104078000080fb007f006000a1
:10322800e10f500013003200e20f5000320032006c
:103238000000e0009a003a0030608000e18320003e
:103248009140780001487800306080000000e80074
:103258008040eb000148780040c0200021c0b30046
:103268000148780050c0200081ccb30001487800a4
:103278008f00370040c8bf000080fb00e20f5000fd
:1032880003003200e30f5000050032001900370038
:103298003cc8bf000004a0003ce8b7001500370098
:1032a80040832000404090000004e0000e003a00f7
:1032b800306080008040eb0001487800306080007a
:1032c8000000e8008040eb000148780040c0200082
:1032d80021c0b3000148780050c0200081ccb30061
:1032e80001487800030037003cc8bf000004a00074
:1032f8003ce8b7006e00370040c8bf000080fb0004
:10330800e20f500003003200e30f500029003200a2
:103318005f00370040832000404090000080fb00a1
:103328006f0060000000e0001e003a00316080007d
:1033380040832000404090000004e00007003d006a
:1033480050c02000104078000080fb00640060003e
:103358004280de00004078000600370010c02000e0
:10336800104078000080fb00640060004280de00ae
:103378000040780080487800306080000000e80055
:103388008040eb000148780040c0200021c0b30015
:103398000148780050c0200081ccb3000148780073
:1033a800030037003cc8bf000004a0003ce8b70099
:1033b8003a003700a04a20001007980040832000f8
:1033c800404090006f4f60001e80fb0000004000ee
:1033d8008000780040832000404090000000fb00ff
:1033e8004f00de0001007000c200dd0000c02000b8
:1033f80000804000200798001e80fb00000040006d
:103408009e009000008040009000780040832000db
:10341800404090000004e00002003d004000200011
:103428000100370080002000008060000000e000fc
:103438001300320030608000ae0090009140900090
:103448008180fb00e4806000c288de008140780053
:1034580001487800306080000000e8008040eb0000
:103468000148780040c0200021c0b300014878001e
:1034780050c0200081ccb300014878000300370019
:103488003cc8bf000004a0003ce8b70003003700b8
:103498003cc8bf000004a0003ce8b70004003700a7
:1034a8003cc8bf000004a0003ce8b700a4013700f6
:1034b800a301370040832000104078000080fb0003
:1034c8007f0060000000e00003003200e20f5000bf
:1034d8001c00320086003700408320002040900006
:1034e8000080fb00e10f500012003a0040832000ea
:1034f80010409000e14f500004003a003ec8bf0061
:103508000004a1003ee8b700030037003ec8bf0032
:103518000004a0003ee8b70040c020008040eb0057
:103528000148780050c0200081ccb30001487800e1
:10353800030037003cc8bf000004a0003ce8b70007
:103548006f00370040c8bf000080fb00e20f50004a
:1035580003003200e30f5000120032006000370011
:1035680040832000404090000080fb006f00600016
:103578000000e00007003a0040c020008040eb0057
:103588000148780050c0200081ccb3000148780081
:10359800030037003cc8bf000004a0003ce8b700a7
:1035a80052003700a04a20001007980040832000ee
:1035b800404090006f4f60001e4078000004e0001b
:1035c8003b0032001e80fb000000400080007800b5
:1035d80040832000404090000000fb004f00de00c8
:1035e80001007000c200dd0000c020000080400023
:1035f8002007980040832000404090000004e0002d
:1036080016003d001e80fb00000040009e00900058
:103618000080400010007800640060000000e000b6
:103628000a0032004083200010409000e14f500013
:1036380002003a000040eb000100370040c8b30028
:10364800ae00900090409800190037003cc8bf00b9
:103658000004a0003ce8b700150037001e80fb00fe
:10366800000040009e00900000804000100078009c
:10367800680060000000e0000a003200408320007b
:1036880010409000e14f500002003a0080c8b3009b
:103698000100370040c8b300ae0090009040980089
:1036a800030037003cc8bf000004a0003ce8b70096
:1036b8003cc8bf000080fb00610060000000e00023
:1036c80006003a0040c020008040eb000148780026
:1036d80050c0200081ccb3000148780003003700b7
:1036e8003cc8bf000004a0003ce8b7000400370055
:1036f8003cc8bf000004a0003ce8b7001001370038
:103708000f01370040832000204090000004e000b3
:1037180004003d003cc8bf000004a0003ce8b7001e
:10372800070137004083200090407800a0b22000b5
:10373800014878004083200090409000b0b22000fb
:1037480001487800408320001000900060598800ec
:10375800408320002000900070598800408320009a
:10376800300090008059880040c020008040eb0065
:103778000148780050c0200081ccb300014878008f
:10378800ef0037004083200090407800a0b220006e
:10379800014878004083200090409000b0b220009b
:1037a800014878004083200010009000605988008c
:1037b800408320002000900070598800408320003a
:1037c80030009000805988004083200030409000ed
:1037d8000080fb00e20f500014003200e30f50009d
:1037e80036003200e10f50005c003a00e05d29002d
:1037f8009059880090598000104078000080fb00a4
:10380800a059880040832000b0009000a059800093
:10381800808f50000300310040832000300090006a
:10382800a05988002201070050003700408320007b
:10383800204090000080fb000000e00003003a00f8
:10384800005f290090598800030037003cc8bf007a
:103858000004a0003ce8b7003cc8bf000080fb00a3
:10386800610060000000e00013003a0090598000f9
:103878000080e8009040780040b3200001487800bc
:1038880090598000630040009040780050b32000b9
:103898000148780040832000b0009000a0598000c3
:1038a800808f5000030031004083200030009000da
:1038b800a0598800fe0007002c0037004083200034
:1038c800204090000080fb00e10f5000070032000c
:1038d800e20f5000080032000000e00009003a0042
:1038e800206029009059880009003700606029008d
:1038f8009059880006003700006229009059880016
:10390800030037003cc8bf000004a0003ce8b70033
:103918003cc8bf000080fb00610060000000e000c0
:103928000d003a0090598000104078000080fb009c
:10393800a059880040832000b0009000a059800062
:10394800808f500003003100408320003000900039
:10395800a0598800d6000700040037003cc8bf0003
:103968000004a0003ce8b700750037007400370079
:1039780030608000d18320009140780001487800b1
:1039880040c0200011c0b3000148780050c020009a
:1039980081ccb300014878006900370040832000db
:1039a80020409000e14f500022003e00a04a200035
:1039b8001007980010c0b300004f780007003700c8
:1039c8001e80fb00000040009e0090000080400028
:1039d8008000eb00010878001e4fe8001e407800c8
:1039e800ef4f5000f6ff3600408320002040900043
:1039f8003de8b7003dc8bf000080fb000000e000c4
:103a080003003a0020c0b30040e8b70002003700c6
:103a180030c0b30040e8b70040c020008040eb0051
:103a28000148780050c0200081ccb30001487800dc
:103a3800430037003cc8bf000004a0003ce8b700c2
:103a48003f00370040c8bf000080fb00e30f500074
:103a580013003a0040832000404090000004e0003a
:103a68000a003a00306080008040eb00014878008e
:103a780040c0200011c0b3000148780050c02000a9
:103a880081ccb30001487800030037003cc8bf0070
:103a98000004a0003ce8b700000000002800370040
:103aa8003cc8bf000004a0003ce8b7002400370071
:103ab80040c8bf000080fb00e30f500019003a0027
:103ac80040832000404090000004e00010003a00cd
:103ad80040832000204090000080fb000000e000b0
:103ae80007003a0040c020008040eb000148780001
:103af80050c0200081ccb30001487800070037008f
:103b08003cc8bf000004a0003ce8b7000300370031
:103b18003cc8bf000004a0003ce8b700000000005b
:103b2800070037003cc8bf000004a0003ce8b7000d
:103b3800030037003cc8bf000004a0003ce8b70001
:103b48000080fa00000006000000fa003fc8bf002d
:103b58008080fb00000f2000008060000000e00073
:103b68002b003a00a0b22000104078008080fb00b3
:103b7800000620000080600001022000810f500034
:103b88001f00320001042000810f50001a0032008b
:103b98000000e0001d003a00b0b22000104078009c
:103ba8000080fb00e50f500003003200e60f5000d4
:103bb8000e00320013003700c0b220001040780019
:103bc8000080fb00b0248800b02480000000e000e2
:103bd80003003a0010c0b30040e8b7000200370005
:103be80020c0b30040e8b7000200370030000700eb
:103bf80000000000030037000e0507000100370031
:103c08000000000000000000010037000000000074
:103c18000080fa00000006000000fa003fc8bf005c
:103c28008080fb00000f2000008060000000e000a2
:103c38001d003a00a0b22000104078008080fb00f0
:103c4800000620000080600001022000810f500063
:103c58000500320001042000810f500004003a00e2
:103c6800fa040700030037000000000001003700d5
:103c78000000000000c0200001c4b3000148780023
:103c880010c0200081c8b3000148780040c020005f
:103c98008040eb000148780050c0200081ccb30080
:103ca80001487800000000000080fa0000000600cb
:103cb8000200fa00a1598000f0032000808f500014
:103cc8000b003e00a0598000004f78000000eb0078
:103cd800a0598800a0b2200080c0eb0001487800fd
:103ce800b0b2200080c0eb00014878000500370022
:103cf80000c4b300004f7800a05980000004b10050
:103d0800a05988000040eb00104798000c003700cd
:103d1800316080001e4090000080fb0080804000e1
:103d28009059800010417800824878000000e8002f
:103d3800905988001e4090000040e8001047980005
:103d48001e4090009e4f5000f1ff390040c02000f7
:103d58001e48780050c020001040780000c0ea00db
:103d680002c4b3008240600080c8b30000c0700085
:103d78008040780050c02000014878000080fa0098
:103d8800000006000200fa00000f78001e0078000c
:103d9800010207001e007800100890000000e000f3
:103da800050032001e007800900890001e00780080
:103db800010001001a0037001e007800200890005a
:103dc8000000e000140032001e0078000008900097
:103dd8000000e0000a0032001e007800a0089000f1
:103de8001e007800010001001e0078000008900005
:103df8008000e9001e0078000108980008003700dc
:103e08001e0078000c0207001e0078008000eb00fe
:103e180021089800020037001e00780006020700fb
:103e28000080fa00000006003600f800809fbe00ff
:103e3800829fbe00849fbe00869fbe003200f800ad
:103e48003400f80010002000a001880000202000a5
:103e5800900188000000fa0060b32000c9ff070045
:103e68000080fa003400f9003200f9004f03be0068
:103e78004f02be004f01be004f00be003600f900e1
:103e8800004006003600f800809fbe00829fbe00fa
:103e9800849fbe00869fbe003200f8003400f80000
:103ea80010002000a0018800002020009001880058
:103eb8000000fa00c0b42000b2ff07000080fa003a
:103ec8003400f9003200f9004f03be004f02be0073
:103ed8004f01be004f00be003600f900004006004a
:103ee8003600f800809fbe00829fbe00849fbe00ff
:103ef800869fbe003200f8003400f8001000200051
:103f0800a001880000202000900188000000fa002d
:103f180020b620009bff07000080fa003400f9005b
:103f28003200f9004f03be004f02be004f01be0031
:103f38004f00be003600f900004006003600f800c9
:103f4800809fbe00829fbe00849fbe00869fbe00e9
:103f58003200f8003400f80010002000a0018800aa
:103f680000202000900188000000fa0080b720009f
:103f780084ff07000080fa003400f9003200f900dd
:103f88004f03be004f02be004f01be004f00be00ef
:103f98003600f900004006003600f800809fbe0099
:103fa800829fbe00849fbe00869fbe003200f8003c
:103fb8003400f80010002000a00188000020200034
:103fc800900188000000fa00e0b820006dff0700ab
:103fd8000080fa003400f9003200f9004f03be00f7
:103fe8004f02be004f01be004f00be003600f90070
:103ff800004006000000fa00b0002000801f780092
:104008004700200036c0b3004509200044082000be
:1040180003102000221020004110200060b320006f
:10402800330007008f87e900c0002000801f780058
:104038008003eb0076c0b300450920004408200047
:1040480063102000c210200001112000c0b420001d
:10405800270007008f87e900d0002000801f780024
:104068001700200086c0b30045092000440820003e
:10407800a3102000e21020002111200020b620000b
:104088001b0007008f87e900e0002000801f7800f0
:1040980027002000b6c0b30065092000640820008e
:1040a80043112000a2112000e111200080b7200058
:1040b8000f0007008f87e900f0002000801f7800bc
:1040c80037002000c6c0b30065092000640820003e
:1040d80083112000c211200001122000e0b8200046
:1040e800030007008f87e9000080fa00000006003f
:1040f8001000fa00000f78001107980022079800b6
:10410800330798004407980055079800464f9800d1
:10411800770798001e0078009e009000010878003c
:104128001e007800ae009000110098001e00780074
:10413800be009000210098001e007800ce0090007c
:10414800310098001e007800de00900041009800c1
:104158001e007800ce489000214898001e00780084
:10416800fe009000610098001e007800ceb897000d
:10417800710098001e0078008000eb00010898008c
:104188001e0078008000eb00110898001e007800df
:104198008000eb00210898000080fa00000006006b
:1041a8000600fa00881f7800000f780012079800b0
:1041b8002307980018c0b300d27b230063f82300bc
:1041c8001e009000ae00900046f907000000e000d5
:1041d80001003c000044eb000804e00069003a00dc
:1041e80018c0b300d27b230063e823001e009000b0
:1041f800ae0090003bf907000000e00001003c0021
:104208000044eb000804e000120032001e007800b1
:10421800c40007001e007800100078000103200089
:10422800010878001e007800100490000240220067
:10423800437724001e009000ae009000bff90700ed
:104248004bf90700000078000000e900000c780036
:104258004d00370018c0b300d27b230063d0230081
:104268001e009000ae0090001ef907000000e0005c
:1042780001003c000044eb000804e000120032009a
:104288001e007800a70007001e00780010007800c4
:1042980001022000010878001e0078001004900038
:1042a80002402200438724001e009000ae009000c8
:1042b800a2f907002ef90700000078000000e900c5
:1042c800000c78003000370018c0b300d27b230000
:1042d80063b823001e009000ae00900001f90700ab
:1042e8000000e00001003c000044eb000804e0008e
:1042f800120032001e0078008a0007001e007800b5
:104308001000780001012000010878001e007800e4
:104318001004900002402200439f24001e009000d9
:10432800ae00900085f9070011f907000000780039
:104338000000e900000c7800130037001e00780028
:10434800780007001e007800100078008000eb005d
:10435800010878001e007800100490000240220036
:1043680043b724001e009000ae00900073f90700c8
:10437800fff80700000078000000e900000c780052
:1043880001003700000000004f0478000080fa00a8
:10439800000006000400fa00889fbe00100798007d
:1043a8001e009000100078009000780000032000a4
:1043b800008060004400de00000f78001e007800d6
:1043c800c200dd0060be2000008040001004be0076
:1043d8001e00900010009000100078008000eb0094
:1043e80001f907000200200003f823001cf8070069
:1043f8000001be000800be0050f907004f04be00cf
:104408000080fa00000006000600fa00000f78009d
:1044180012079800230798001e019000ae01900033
:104428000000200001f823006af807000001be0020
:104438001e0078005aff07000080fa0000000600fe
:104448000200fa00000f78001e007800d1ff070074
:104458000001be000000200001f823005df80700fd
:104468000080fa00000006000400fa00889fbe00e1
:10447800100798001e009000100078009000780047
:1044880000032000008060004400de00000f780078
:104498001e007800c200dd0060be200000804000e1
:1044a8001004be001e00900010009000100078005c
:1044b8008000eb00ccf807000200200003f823007e
:1044c800e7f707000001be000800be001bf907005f
:1044d8004f04be000080fa00000006000200fa0047
:1044e800000f78001e0078002b0007001e007800df
:1044f800200090008000eb00010878001e00780082
:10450800100078009e007800910078001101780072
:104518000100280082807000010878000080fa00fd
:10452800000006000200fa00000f78001e00780064
:10453800100078009e007800910078001101780042
:10454800f1ff270081006100010878000080fa006f
:10455800000006000200fa00000f78001e00780034
:1045680030009000900078001e00780020489000ed
:104578000080fb00120020000010dd0000806000b9
:1045880000f0a7000000ea000000ea004f00de008b
:104598000080fa00000006000200fa00000f780010
:1045a8001e007800300090009e007800b100900056
:1045b800110178009e007800a14890008180fb00de
:1045c800130020008118dd008180ea00810061006d
:1045d800010878000080fa00000006000200fa00d6
:1045e800000f78001e00780020009000100078006e
:1045f8000080fa00000006000200fa00000f7800b0
:104608001e007800400090009e007800c1009000d5
:10461800110178009e007800a14890008180fb007d
:10462800130020008118dd008280700001087800e6
:104638000080fa00000006000200fa00000f78006f
:104648001e007800400090009e007800c100900095
:10465800110178009e007800a14890008180fb003d
:10466800130020008118dd008180ea0081006100cc
:10467800010878000080fa00000006000800fa002f
:10468800000f780012079800230798003107980058
:104698001e007800e8ff07001e019000ae019000a0
:1046a8001e007800befe07001e0078008000eb00a8
:1046b800010898001e007800be00900011089800bc
:1046c8001e0078008000eb00210898001e0078008a
:1046d800c9ff07001e00780080ff07000080fa006d
:1046e800000006000a00fa00000f78001207980080
:1046f8002307980031079800440798001e007800a7
:10470800cdff07001e019000ae0190001e0078004a
:10471800a3fe07001e007800be0090000108980064
:104728001e0078008000eb00110898001e00780039
:10473800ce009000210898001e007800aeff070008
:104748001e00780065ff07000080fa0000000600e0
:104758000200fa00000f78001e007800b6ff07007c
:104768001e0078008cff07001e0078006dff070010
:104778001e0078008000eb00010898001e007800f9
:104788008000eb00110898001e0078008000eb0004
:10479800210898000080fa00000006000600fa00d0
:1047a800889fbe0000047800210798002e00900022
:1047b80000e0a000000f78009e0478001e0078003a
:1047c800b60a07000080fb004f00dd0009007000fa
:1047d800000f780040428000dc0607001e40900071
:1047e8008040780040ba2000a90407001e407800e5
:1047f8008040780040ba2000a504070040428000ad
:10480800bd06070040428000d00607008040eb004c
:1048180040ba20009e040700304798008040eb0013
:1048280040ba20009a0407002047980040428000c0
:10483800b10607009e009000010c7800080078007f
:104848004f04be000080fa00000006000200fa00d3
:10485800000f78009e007800714288000080fa00fe
:10486800000006000000fa00704280000080fa0094
:10487800000006000000fa000080fa0000000600b0
:104888000200fa000000eb00f0ff2300800078002f
:104898000e007800c1ff07001e4078008080fb00f2
:1048a8001e4090000080fb004800dd0000804000b2
:1048b8000080fa00000006000200fa000000eb0089
:1048c800e0ff2300800078000e007800b3ff0700a7
:1048d8001e4078008080fb001e4090000080fb0096
:1048e8004800dd00008040000080fa00000006005b
:1048f8000400fa00100798009e009000900d2c000c
:104908008080400010fd2f00000178001100090090
:104918008200d800000f78001e0078000080fa009e
:10492800000006000400fa00d5ff0700000f780019
:104938001e007800eeff0700100798001e00900088
:104948000080fa00000006000200fa00000f78005c
:104958001e0078000000e000080034001e00780007
:1049680080007800a08e2000a30607008000eb00de
:1049780000902000a0060700110037001e007800f4
:104988000000e00008003d001e00ea0080007800fa
:1049980000902000980607008000eb00a08e200001
:1049a80095060700060037008000eb000090200005
:1049b800910607008000eb00a08e20008e060700fd
:1049c8000080fa00000006000800fa00200798009e
:1049d80031079800ae0090003e009000008f500014
:1049e8001e0078008000780001f0a7008100ea002e
:1049f80040062000808f50000500340081e92f0018
:104a08001e804000100798001e009000010037002b
:104a18001e0078000080fa00000006000800fa0076
:104a2800100798002107980032079800ae00900000
:104a38001e009000808050003e0090000001780029
:104a4800110009008200d800000f78001e007800cd
:104a58000080fa00000006000e00fa0050428000b4
:104a680073060700600798000040eb00404f98006d
:104a78004e4890008080fb005e4890000080fb005c
:104a880000804000cf80de0054f70700008fbe0092
:104a980032332300330524001e00be00a7f70700a9
:104aa80002f02f00f3772400caf60700008fbe003b
:104ab800d2cc2c00c3fc23001e00be0067f6070002
:104ac800a299290093d923009cf707002007980092
:104ad8003107980002002000030824002e009000ef
:104ae800be00900095f7070040079800510798000e
:104af8004e009000de0090000080fa0000000600e2
:104b08000e00fa00300798004207980053079800f3
:104b1800610798000000eb00000f78003e0090004d
:104b2800cf80de002df707004e019000de019000d7
:104b38004af60700edf60700100798009e00780077
:104b48001e0090000088b900800078006e00900078
:104b580000804000200798002e0090000080fa0096
:104b6800000006000e00fa0060079800baff070070
:104b7800008fbe0080c12f0020079800a08e200063
:104b88002b060700500798005e0090000000e00028
:104b980003003a00009020002506070050079800ff
:104ba8002e4890008080fb003e4890000080fb006b
:104bb8004800dd000080400030079800ee009000bb
:104bc8002e009000808f500008003500e001200082
:104bd800400798008000eb000090200006060700c0
:104be8008000eb00a08e2000030607003e00900026
:104bf8000080fa00000006000600fa00000f7800a6
:104c080011079800220798000000eb000080fa00c6
:104c1800000006000400fa00000f78001107980051
:104c28000000eb000080fa00000006000e00fa0009
:104c38004007980051079800620798006e0090009e
:104c480000004000ce00900000017800110009002b
:104c58008200d8008000fd00200798005e009000c8
:104c680000f0a7000000ea00de00900000017800d4
:104c7800110009008200d800300798006e009000eb
:104c880000004000ae00900000017800110009000b
:104c98008200d8008000fd000000e00008003a0013
:104ca8003e009000cf80de00ccf607000200200016
:104cb80003f0230021f70700008fbe002300370010
:104cc8006e00900000004000ae00900000017800e7
:104cd800110009008200d8008000fd00e50f500097
:104ce80008003a003e009000cf80de00bbf60700c7
:104cf8000200200003f02b0010f70700008fbe0011
:104d080012003700ae0090006e009000808f5000b7
:104d180003003d006000b800008fbe000b003700a4
:104d2800ae0090006e009000808f500007003400a5
:104d38003e009000cf80de00a8f6070002002000a9
:104d480003e82300fdf60700008fbe001e00be002a
:104d580066f60700000078000080fa0000000600f0
:104d68000c00fa0040832000104090000080fb00f7
:104d7800e50f50005c003200e50f50000c003c00cd
:104d8800e20f50001f003200e20f500003003c0009
:104d9800e10f500012003200a1003700e30f50006d
:104da80027003200e40f5000360032009c00370024
:104db800e80f500076003200e80f500003003c0076
:104dc800e60f50005e00320095003700e90f5000f2
:104dd80079003200ea0f5000870032009000370057
:104de800008020008208070040c020008040eb00bf
:104df8000148780050c0200081ccb30001487800f9
:104e08008a0037004083200010009000800078005e
:104e1800a08e2000780507008000eb00009020009d
:104e28007505070040c020008040eb00014878006d
:104e380050c0200081ccb300014878007b003700c7
:104e4800a08e20007a0507003007980030608000a7
:104e5800ee40900001487800306080000000e800d3
:104e6800fe4090000148780040c0200021c0b300f7
:104e78000148780050c0200081ccb3000148780078
:104e88006a0037000000eb00f0ff230068014700cc
:104e9800800078000200780040fe07000e4890006d
:104ea8008080fb00f003200000806000300798003d
:104eb800306080008e4890000148780030608000a3
:104ec8000000e8009e4890000148780040c020009b
:104ed80021c0b3000148780050c0200081ccb30045
:104ee80001487800510037000000eb00e0ff230084
:104ef8006a014700800078000200780027fe07005a
:104f0800de00900041079800306080008e489000d5
:104f180001487800306080000000e8009e4890005a
:104f28000148780040c0200021c0b3000148780043
:104f380050c0200081ccb300014878003b00370006
:104f48006a004700418320009100900013fe07008b
:104f5800de00900041079800306080008e48900085
:104f680001487800306080000000e8009e4890000a
:104f78000148780040c0200021c0b30001487800f3
:104f880050c0200081ccb3000148780027003700ca
:104f980040832000100090006042880040c020003c
:104fa8008040eb000148780050c0200081ccb3005d
:104fb800014878001d00370010002000604288007a
:104fc8002ffe0700000f78001e00780048fe07003b
:104fd800000f78001e007800e2fe070040c02000a5
:104fe8008040eb000148780050c0200081ccb3001d
:104ff800014878000d003700408320001000900021
:1050080012fe070040c020008040eb0001487800f5
:1050180050c0200081ccb30001487800030037005d
:105028003cc8bf000004a0003ce8b7000080fa00bc
:10503800000006000000fa003cc8bf000004a00001
:105048003ce8b7000080fa00000006000000fa0003
:105058003cc8bf000004a0003ce8b7000080fa008c
:10506800000006000200fa0000102000203a880024
:105078005c070700dc02070065050700360007002b
:105088000085200030428800608620002042880089
:10509800c0872000104288002089200040428800f4
:1050a8004098200050428800504280006a0407005f
:1050b8004042800033040700404280008e0407000d
:1050c80012428000314280002042800016c0b300a6
:1050d80004402200459f24008201780001017800e5
:1050e8008000780040ba20006e0007000300280006
:1050f80004002400c56124000001eb00a18e2000fb
:1051080080a02000f10507008001eb0004002400c6
:10511800c56124000001eb0001902000a0a120003f
:10512800ea050700e6f607000100370023f7070045
:1051380040c8bf00e34f5000fcff3a001ff70700cc
:10514800cffd0700000f78001e007800e8fd07007b
:10515800000f7800f9ff37000000fa0080002000f7
:10516800801f7800770020000043eb00856a20004c
:10517800842420004324200022242000012420002d
:1051880040ba20001b0007008f87e900b00020000c
:10519800801f7800a70020000043eb00c56a2000ac
:1051a80084262000432620002226200001262000f5
:1051b800a0bb20000f0007008f87e9001002200025
:1051c800801f7800070220000043eb00856b200059
:1051d80084282000432820002228200001282000bd
:1051e80000bd2000030007008f87e9000080fa0057
:1051f800000006001000fa00000f78001107980060
:10520800220798003307980044079800550798002c
:10521800464f9800770798001e0078009e0090007f
:10522800010878001e007800ae0090001100980078
:105238001e007800be009000210098001e00780033
:10524800ce009000310098001e007800de0090002b
:10525800410098001e007800ce4890002148980030
:105268001e007800fe009000610098001e00780083
:10527800ceb89700710098001e0078008000eb00ff
:10528800010898001e0078008000eb0011089800c3
:105298001e0078008000eb00210898000080fa00ca
:1052a800000006001a00fa00881f780060079800be
:1052b80071079800020f9800130f9800240f9800a8
:1052c800350f9800065f980000102000200798000e
:1052d8000000eb00300798000014200040079800f9
:1052e80000042000500798007e00900060009000a5
:1052f800e10f4000360132000e0890006000900077
:10530800e10f4000340132001e0890006000900058
:10531800e10f4000320132007e009000000890004a
:105328000000e00097003a000e0890000008900086
:105338000000e00093003a001e089000000890006a
:105348000000e0008f003a007e009000660307002e
:105358000e0890008b0307000e089000e603070074
:105368001e089000870307001e089000f703070037
:105378006e009000fe009000010898007e009000ea
:10538800ee009000010898007e0090008000eb007d
:10539800110898007e0090008000eb00210898001a
:1053a8006e0090008e089000110898000e0890007a
:1053b800ee009000010898000e0890008000eb00b5
:1053c800110898000e0890008000eb002108980052
:1053d8006e0090009e089000210898001e0890001a
:1053e800ee009000010898001e0890008000eb0075
:1053f800110898001e0890008000eb002108980012
:10540800113a8000f00b2000008160006004200049
:1054180071052000237420008049780081497800b4
:10542800824978006e00900040009000ee009000e5
:10543800c100900011017800ee009000a148900092
:105448008180fb00f30320008118dd008180ea00e1
:1054580081006100010878006e0090004000900013
:10546800ee009000c100900011017800fe0090004d
:10547800e1019000ee009000a14890008180fb00bf
:105488008118dd0082807000010878000e08900005
:10549800700090008e089000f100900011017800d3
:1054a8008e089000a14890008180fb00f303200043
:1054b8008118dd008180ea00810061000108780020
:1054c8000e089000700090008e089000f100900087
:1054d80011017800ee009000e10190008e08900024
:1054e800a14890008180fb008118dd008280700057
:1054f800010878001e089000700090009e08900037
:10550800f1009000110178009e089000a1489000d9
:105518008180fb00f30320008118dd008180ea0010
:1055280081006100010878001e089000700090005a
:105538009e089000f100900011017800ee009000a4
:10554800f10190009e089000a14890008180fb0026
:105558008118dd008280700001087800103a800010
:10556800000178000260a00060042000710520009e
:1055780023742000804978008149780082497800a6
:105588000f0037006e009000800890007e009000a9
:10559800808f500094003a006e00900090089000b0
:1055a8000e089000808f500091003a006e00900025
:1055b800a00890001e089000808f50008e003a00ce
:1055c80018c0b3000240220043af24002e08900008
:1055d800be08900043f407000000e00001003c0012
:1055e8000044eb000804e000040032000040220000
:1055f80041af2400200f9800310f980018c0b30065
:1056080002402200436f24002e089000be0890003c
:1056180032f407000000e000010035000044eb0010
:105628000804e0000400320000402200416f24001a
:10563800200f9800310f980018c0b30002402200d4
:10564800437f24002e089000be08900023f4070032
:105658000000e000010034000044eb000804e00012
:105668000a00320002002000032824002e089000bf
:10567800be089000b1f40700200f9800310f980081
:105688000000eb00000f78002c00370018c0b300b2
:1056980002402200438f24002e089000be0890008c
:1056a8000ef407000000e000010034000044eb00a5
:1056b8000804e0000a003200020020000318240059
:1056c8002e089000be0890009cf40700200f980058
:1056d800310f980010002000000f780017003700e5
:1056e80018c0b30002402200439f24002e089000f7
:1056f800be089000f9f307000000e0000100340044
:105708000044eb000804e0000a0032000200200018
:10571800030824002e089000be08900087f40700b4
:10572800200f9800310f980020002000000f78000b
:105738000200370030002000000f78002e0990008a
:10574800be0990000040220041b72400a1f30700e1
:105758000200200003f0230041f3070004f40700cf
:10576800100798001e009000680010004200dd003d
:10577800100798006e009000900090000e5890005e
:105788000080fb00630060000000400064014700e7
:1057980000004100100078001e0170001e009000fb
:1057a800020070000050a000800878006e00900091
:1057b800200090008000eb00010878006e00900047
:1057c8001000780001002800010878000b0037005d
:1057d8000000000009003700000000000700370043
:1057e800000000000500370000000000030037003b
:1057f8000000000001003700000000004f0478009e
:105808000080fa00000006000200fa00000f78008d
:105818001e007800100078008000eb000108780076
:105828001e007800100090008000eb00010878004e
:105838001e007800200090008000eb00010878002e
:105848001e007800000890000000e00028003200e8
:10585800113a8000f00b20000081600060042000f5
:105868007105200023742000804978008149780060
:10587800824978001e007800400090009e00780061
:10588800c1009000110178009e007800a1489000a6
:105898008180fb00f30320008118dd008280700006
:1058a80001087800103a8000000178000260a0002a
:1058b80060042000710520002374200080497800ce
:1058c80081497800824978001e007800000890001d
:1058d8008000eb00010898001e0078000008900086
:1058e800010207001e0078008000eb000108980004
:1058f8001e007800100890000000e0002f00320021
:10590800113a8000f00b2000008160006004200044
:1059180071052000237420008049780081497800af
:10592800824978001e0078001008900070009000ee
:105938009e00780091089000f10090001101780015
:105948009e00780091089000a14890008180fb009b
:10595800f30320008118dd008180ea0081006100e6
:1059680001087800103a8000000178000260a00069
:10597800600420007105200023742000804978000d
:1059880081497800824978001e007800100890004c
:105998008000eb00010898001e00780010089000b5
:1059a800f80107001e007800100890005202070056
:1059b8001e0078008000eb00110898001e00780097
:1059c800200890000000e0002f003200113a80000b
:1059d800f00b2000008160006004200071052000a9
:1059e8002374200080497800814978008249780032
:1059f8001e00780020089000700090009e0078003b
:105a0800a1089000f1009000110178009e00780034
:105a1800a1089000a14890008180fb00f3032000ba
:105a28008118dd008180ea008100610001087800aa
:105a3800103a8000000178000260a0006004200095
:105a4800710520002374200080497800814978007e
:105a5800824978001e007800200890008000eb0042
:105a6800010898001e00780020089000c501070072
:105a78001e00780020089000340207001e007800fd
:105a88008000eb00210898000080fa000000060062
:105a98000400fa00000f7800214798001e007800e3
:105aa80030009000ae4090008180fb000108780033
:105ab800000000001e007800100078001000780038
:105ac800610060000000e000faff32001e0078006c
:105ad8003000900010007800004078000080fa0044
:105ae800000006000400fa00000f78001107980073
:105af8001e0090000000e0000d0032001e0078003b
:105b0800100078009e00780091007800110178005c
:105b18009e007800e14090008180fb001300200087
:105b28008118dd0082807000010878000d003700c0
:105b38001e007800100078009e0078009100780020
:105b4800110178009e007800e14090008180fb0000
:105b5800130020008118dd008180ea0081006100c7
:105b6800010878000080fa00000006000200fa0030
:105b7800000f78001e007800100078009000780070
:105b88001e007800604090000080fb00120020009a
:105b98000010dd000080600000f0a7000000ea00af
:105ba8000000ea004f00de000080fa000000060056
:105bb8000200fa00000f78001e00780040009000f4
:105bc800401988002023a800000000000019800068
:105bd800610060000000e000fcff32000018800057
:105be8000080fa00000006000200fa00406d200064
:105bf800801f7800470120000043eb008082eb0003
:105c080054c0b3008001eb00822d2000a12d20009c
:105c180000852000080107008f87e900806d2000bb
:105c2800801f78009701200086c0b3008082eb00b7
:105c380044c0b3008001eb00822d2000a12d20007c
:105c480060862000fc0007008f87e900a06c200018
:105c5800801f7800a70020000043eb008082eb0043
:105c680044c0b3008001eb00822e2000a12e20004a
:105c7800c0872000f00007008f87e900006d200032
:105c8800801f78001701200086c0b3008082eb00d7
:105c980054c0b3008001eb00822e2000a12e20000a
:105ca80020892000e40007008f87e900c06d2000ec
:105cb800801f7800d701200086c0b300f5002000bf
:105cc800f4c0b300234e2000822c2000a12c200019
:105cd800808a2000d80007008f87e900006d200027
:105ce800801f7800070120000043eb008082eb0052
:105cf80034c0b3008001eb00822e2000a12e2000ca
:105d0800e08b2000cc0007008f87e900206c200082
:105d1800801f7800270020000043eb008082eb0002
:105d280084c0b3008001eb00822d2000a12d20004b
:105d3800408d2000c00007008f87e900c06c20005c
:105d4800801f7800c70020000043eb008082eb0032
:105d5800b4c0b3008001eb00822d2000a12d2000eb
:105d6800a08e2000b40007008f87e900406c200057
:105d7800801f7800470020000043eb008082eb0082
:105d880094c0b3008001eb00822d2000a12d2000db
:105d980000902000a80007008f87e900206c2000f1
:105da800801f78003700200086c0b3008082eb0097
:105db800a4c0b3008001eb00822d2000a12d20009b
:105dc800609120009c0007008f87e900a06c2000ec
:105dd800801f7800b700200086c0b3008082eb00e7
:105de8000042eb008001eb00822d2000a12d200055
:105df800c0922000900007008f87e900806d200086
:105e0800801f7800870120000043eb008082eb00b0
:105e180014c0b3008001eb00822d2000a12d2000ca
:105e280020942000840007008f87e900606d20001f
:105e3800801f78007701200086c0b3008082eb00c5
:105e480024c0b3008001eb00822d2000a12d20008a
:105e580080952000780007008f87e900606d20009a
:105e6800801f7800670120000043eb008082eb0070
:105e780034c0b3008001eb00822d2000a12d20004a
:105e8800e09620006c0007008f87e900006c200076
:105e9800801f78008003eb000043eb008002eb00da
:105ea8000042eb00234e2000822c2000a12c200071
:105eb800209f2000600007008f87e900006c200009
:105ec800801f78001700200086c0b300150020004e
:105ed80014c0b300234e2000822c2000a12c2000e7
:105ee800c09d2000540007008f87e900c06c200087
:105ef800801f7800d700200086c0b300250020004e
:105f080024c0b300234e2000822c2000a12c2000a6
:105f1800609c2000480007008f87e9000000eb0024
:105f2800801f78008083eb000043eb0035002000e1
:105f380034c0b300234e2000822c2000a12c200066
:105f4800009b20003c0007008f87e900c06d2000ff
:105f5800801f7800c70120000043eb0045002000a7
:105f680044c0b300234e2000822c2000a12c200026
:105f7800a0992000300007008f87e900206d2000dd
:105f8800801f7800270120000043eb005500200007
:105f980054c0b300234e2000822c2000a12c2000e6
:105fa80040982000240007008f87e9000000eb00dc
:105fb800000f7800070037001e0078007600b9004f
:105fc800800078000085200000804000460007001f
:105fd8001e0fe8001e007800ed0f5000f6ff360097
:105fe8000000eb00000f7800070037001e00780063
:105ff8007600b900800078004098200000804000ba
:10600800950007001e0fe8001e007800e50f5000fd
:10601800f6ff3600002e2000001988002223ef002a
:1060280000c42000201988002823ef0021e3a800dd
:106038000080fa00000006001000fa00000f780047
:10604800110798002207980033079800044f98001a
:1060580055079800464f9800770798001e0078006b
:106068009e009000010878001e007800ae009000a5
:10607800110098001e007800be00900021009800d2
:106088001e0078008e489000614098001e0078003d
:10609800de009000410098001e007800ce48900075
:1060a80021489800fe0090001e00780061009800ca
:1060b8001e007800ceb89700710098001e00780086
:1060c8008000eb00010898001e0078008000eb00bb
:1060d800110898001e0078008000eb002108980045
:1060e8000080fa00000006000200fa00000f7800a5
:1060f8001e007800200090000000e0000d00320033
:106108001e007800200090009e007800a1009000fa
:10611800110178009e007800e14090008180fb002a
:10612800130020008118dd008180ea0081006100f1
:10613800010878001e007800100090009e0078008a
:1061480091009000110178009e007800e1409000d5
:106158008180fb00130020008118dd008280700020
:10616800010878001e0078008000eb0011089800f4
:106178001e007800a1db2200210898000080fa00a8
:10618800000006000200fa00000f78001e007800e8
:10619800200090000000e0000d0032001e00780092
:1061a800200090009e007800a10090001101780066
:1061b8009e007800e14090008180fb0013002000e1
:1061c8008118dd008180ea00810061000108780003
:1061d8001e007800100078009e007800910078007a
:1061e800110178009e007800e14090008180fb005a
:1061f800130020008118dd008180ea008100610021
:10620800010878001e007800100090009e007800b9
:1062180091009000110178009e007800e140900004
:106228008180fb00130020008118dd008180ea00d6
:1062380081006100010878001e00780061d7220003
:10624800110898001e007800a1db220021089800a0
:106258000080fa00000006000200fa00000f780033
:106268001e007800200090000000e0001f003200af
:106278001e007800100090009e00780091009000a9
:10628800110178009e007800e14090008180fb00b9
:10629800130020008118dd0082807000010878005a
:1062a8001e007800200090009e007800a100900059
:1062b800110178009e007800e14090008180fb0089
:1062c800130020008118dd0082807000010878002a
:1062d8001e0078008000eb00110898001e0078006e
:1062e800c1dd2200210898000100370000000000ed
:1062f8000080fa00000006000200fa00000f780093
:106308001e0078009008900060d72200808f50000f
:106318000c003a001e007800100078009e007800fb
:1063280091007800110178009e007800e14090000b
:106338008180fb00130020008118dd00828070003e
:10634800010878000080fa00000006000200fa0048
:10635800000f78001e0078009008900060d7220097
:10636800808f50000d003a001e0078001000780061
:106378009e00780091007800110178009e00780056
:10638800e14090008180fb00130020008118dd00af
:106398008180ea0081006100010878000080fa002d
:1063a800000006000200fa00000f78001e007800c6
:1063b8009008900060d72200808f50000c003a00af
:1063c8001e007800100078009e0078009100780088
:1063d800110178009e007800e14090008180fb0068
:1063e800130020008118dd00810069000108780091
:1063f8000080fa00000006000400fa00000f780090
:10640800110798001e007800100890000000e000b6
:10641800050032001e007800100990009e009000d0
:106428001e007800020001000080fa00000006004b
:106438000200fa00000f78001e0078002008900083
:106448000000e000050032001e007800a00890005f
:106458001e00780001000100010037000080eb00f9
:106468000080fa00000006000800fa0030079800d3
:106478003e00900000089000000f78000000eb003c
:10648800100798001e007800300090001000780077
:10649800200798001e029000ae0290001e007800af
:1064a80020009000100078008000eb000001be0082
:1064b8000400be0055f10700000078000080fa00d3
:1064c800000006000a00fa0030079800410798000b
:1064d8003e00900000089000000f78004e009000e9
:1064e8006101b8001e0078002000900010007800bc
:1064f8008000eb00009ab90004027800028bb90012
:1065080086027800050242000010b800010242002d
:106518008400780010079800210798001e00780072
:1065280030009000ae009000010878000080fa006a
:10653800000006000800fa00300798003e009000ae
:1065480000089000000f78000000eb00100798008a
:106558001e00780020009000900078001e0078004f
:106568006000900000805000200798001e029000f4
:10657800ae0290001e007800700090008000eb00d2
:106588000001be000400be0020f1070000007800f2
:106598000080fa00000006000a00fa0030079800a0
:1065a800410798003e00900000089000000f780016
:1065b8004e0090006101b8001e0078007000900045
:1065c8008000eb00009ab90004027800028bb90041
:1065d80086027800050242000010b800010242005d
:1065e8008400780010079800210798001e007800a2
:1065f800200090009e00780061019000ae0090009d
:1066080081004100010878000080fa0000000600bf
:106618000000fa00260120008519200064192000d6
:1066280043192000221920000119200080a0200011
:106638004200070036012000251a2000041a200015
:10664800e3192000c2192000a1192000a0a12000f0
:106658003a00070046012000c51a2000a41a2000ad
:10666800831a2000621a2000411a2000c0a22000cc
:106678003200070056012000651b2000441b200043
:10668800231b2000021b2000e11a2000e0a32000a9
:106698002a00070066012000051c2000e41b2000da
:1066a800c31b2000a21b2000811b200000a5200086
:1066b8002200070076012000a51c2000841c200071
:1066c800631c2000421c2000211c200020a6200062
:1066d8001a00070086012000451d2000241d200007
:1066e800031d2000e21c2000c11c200040a7200040
:1066f8001200070096012000e51d2000c41d20009f
:10670800a31d2000821d2000611d200060a820001c
:106718000a00070036022000851e2000641e2000a3
:10672800431e2000221e2000011e200080a92000f8
:10673800020007000080fa00000006000e00fa00c0
:10674800000f780011079800220798003307980077
:106758004407980055079800660798001e007800bf
:106768009e009000010878001e007800ae0090009e
:10677800110098001e007800be00900021009800cb
:106788001e007800ce009000310098001e007800ae
:10679800de009000410098001e00780001e8230008
:1067a800610098001e00780001e82300710098003d
:1067b8001e007800ee009000510098001e0078003e
:1067c8008000eb00010898000080fa000000060035
:1067d8000200fa00000f78001e0078001000780010
:1067e8008000eb00010878001e007800100090007f
:1067f8008000eb00010878001e0078000008900077
:106808000000e0002f003200113a8000f00b200059
:1068180000816000600420007105200023742000be
:106828008049780081497800824978001e00780004
:1068380000089000700090009e0078008108900089
:10684800f1009000110178009e0078008108900006
:10685800a14890008180fb00f30320008118dd002f
:106868008180ea008100610001087800103a800008
:10687800000178000260a00060042000710520007b
:106888002374200080497800814978008249780083
:106898001e007800000890008000eb0001089800b6
:1068a8001e0078000008900036fe07001e007800e1
:1068b80000089000a5fe07001e0078008000eb008d
:1068c800010898000080fa00000006001000fa0095
:1068d800881f780020079800310798004207980021
:1068e8005407980065079800730798003e009000c9
:1068f80060009000e10f40009c0032003e009000d4
:10690800000890000000e00033003a002e009000dc
:10691800be009000010898003e009000ae00900074
:1069280001089800113a8000f00b200000816000f7
:10693800600420007105200023742000804978003d
:1069480081497800824978003e00900070009000ec
:10695800be009000f100900011017800be00900088
:10696800a14890008180fb00f30320008118dd001e
:106978008180ea0081006100010878003e009000f3
:1069880070009000be009000f100900011017800a6
:10699800ae009000d1019000be009000a148900088
:1069a8008180fb008118dd0082807000010878007a
:1069b800103a8000000178000260a0006004200006
:1069c80071052000237420008049780081497800ef
:1069d80082497800050037003e009000800890004a
:1069e8002e009000808f500062003a004e00900008
:1069f8000000e0001c0032002e009000100078001b
:106a0800ce009000e1009000ca08dd006100b300ec
:106a1800010878002e00900010009000f10120007d
:106a2800010878005e019000ee0190004e00900091
:106a380075f607002e00900020009000ce00900010
:106a48009100900091007800010878002e009000d5
:106a5800400090008000eb00010878004e00900094
:106a68009ef60700250037002e00900010007800e1
:106a780061c02100010878002e00900010009000ed
:106a8800f10120000108780018c0b300024022007c
:106a9800433724005e009000ee0090000fef0700df
:106aa8000000e000010035000044eb000804e000ad
:106ab800050032002e009000200090008080eb003e
:106ac800010878000d0037002e0090002004900087
:106ad8005e019000ee0190000040220041b72400c2
:106ae800bcee07000200200003f823005bee07005d
:106af8001fef070000007800000c78007e0090006f
:106b08006101b8002e00900020009000100078006d
:106b18008000eb00009ab90004027800028bb900eb
:106b280086027800050242000010b8000102420007
:106b380084007800008fbe002e0090003000900086
:106b48009e009000010878002e0090000008900038
:106b580061262300110898002e009000000890007c
:106b6800812323002108980003003700000000005b
:106b780001003700000000004f0478000080fa0090
:106b8800000006001400fa0020079800310798005a
:106b98004207980054079800650798007607980000
:106ba800070f9800130f98003e00900060009000b7
:106bb800e10f4000860032003e009000000890007f
:106bc8000000e00033003a002e009000be00900064
:106bd800010898003e009000ae009000010898005f
:106be800113a8000f00b2000008160006004200052
:106bf80071052000237420008049780081497800bd
:106c0800824978003e00900070009000be0090001d
:106c1800f100900011017800be009000a14890009a
:106c28008180fb00f30320008118dd008180ea00e9
:106c380081006100010878003e009000700090001b
:106c4800be009000f100900011017800ae009000a5
:106c5800d1019000be009000a14890008180fb0007
:106c68008118dd008280700001087800103a8000e9
:106c7800000178000260a000600420007105200077
:106c8800237420008049780081497800824978007f
:106c9800050037003e009000800890002e0090000c
:106ca800808f50004c003a004e0090000000e00039
:106cb8004a0032000240220043b724007e009000c0
:106cc8008e0890001def0700a9ee070080007800ed
:106cd8002e009000610098007e0190008e099000bf
:106ce8003eb89700ceb89700dced070002402200be
:106cf80043b7240011ef07009dee070080007800dd
:106d08002e009000710098002e009000100078006e
:106d1800f1c02100010878002e00900010009000ba
:106d2800ce009000f10090000170a00001087800ea
:106d38002e0090003000900011002000010878001b
:106d48001e0890006101b8002e00900070009000ad
:106d58008000eb00009ab90004027800028bb900a9
:106d680086027800050242000010b80001024200c5
:106d780084007800008fbe002e0090002000900054
:106d8800ae009000610190009e00900081004100db
:106d9800010878005e019000ee0190004e0090001e
:106da800fff407004e009000ccf507002e0090007d
:106db80000089000012d2300110898002e00900073
:106dc80000089000e12923002108980003003700fb
:106dd8000000000001003700000000000080fa00f9
:106de800000006000000fa0074c0b300634e2000e3
:106df800822d2000a12d2000008020002000070007
:106e08000042eb00a34e2000822e2000a12e20007d
:106e1800808020001a00070014c0b300a34e200091
:106e2800822e2000a12e20000081200014000700df
:106e3800f4c0b300434e2000022d2000212d200075
:106e480080812000ad000700c4c0b300434e20007d
:106e5800022d2000212d200000822000a70007001d
:106e6800c4c0b300234e2000822c2000a12c200097
:106e780080822000a10007000080fa0000000600c0
:106e88000a00fa00000f78001107980022079800fe
:106e980033079800044f98001e0078009e00900069
:106ea800010878001e007800ae00900011009800dc
:106eb8001e007800be009000210098001e00780097
:106ec8008e489000614098001e00780020009000d5
:106ed8009e007800a1009000110178009e007800c3
:106ee800e14090008180fb00130020008118dd0044
:106ef8008180ea0081006100010878001e007800a6
:106f0800100078009e007800910078001101780048
:106f18009e007800e14090008180fb001300200073
:106f28008118dd008180ea00810061000108780095
:106f38001e007800100090009e00780091009000dc
:106f4800110178009e007800e14090008180fb00ec
:106f5800130020008118dd008180ea0081006100b3
:106f6800010878000080fa00000006000200fa001c
:106f7800000f78001e007800100078009e0078004e
:106f880091007800110178009e007800e14090009f
:106f98008180fb00130020008118dd0082807000d2
:106fa800010878000080fa00000006000200fa00dc
:106fb800000f78001e007800100078009e0078000e
:106fc80091007800110178009e007800e14090005f
:106fd8008180fb00130020008118dd008180ea0019
:106fe80081006100010878000080fa0000000600b6
:106ff8000200fa00000f78001e00780010007800e8
:107008009e00780091007800110178009e007800b9
:10701800e14090008180fb00130020008118dd0012
:1070280081006900010878000080fa00000006006d
:107038000400fa00000f7800110798001e00900065
:107048000000e0000d0032001e00780010007800fb
:107058009e00780091007800110178009e00780069
:10706800e14090008180fb00130020008118dd00c2
:1070780082807000010878000d0037001e0078003b
:10708800100078009e0078009100780011017800c7
:107098009e007800e14090008180fb0013002000f2
:1070a8008118dd008180ea00810061000108780014
:1070b8000080fa00000006000200fa00000f7800c5
:1070c8001e00780010007800900078001e007800fc
:1070d800604090000080fb00120020000010dd00de
:1070e8000080600000f0a7000000ea000000ea004d
:1070f8004f00de000080fa00000006000a00fa00d7
:10710800000f7800110798002207980033079800ad
:10711800044f98001e0078009e0090000108780037
:107128001e007800ae009000110098001e00780044
:10713800be009000210098001e0078008e48900044
:10714800614098001e007800200090009e007800a2
:10715800a1009000110178009e007800e1409000a5
:107168008180fb00130020008118dd008180ea0087
:1071780081006100010878001e007800100090006e
:107188009e00780091009000110178009e00780020
:10719800e14090008180fb00130020008118dd0091
:1071a80082807000010878000080fa000000060064
:1071b8000200fa00000f78001e0078001000780026
:1071c800900078001e007800604090000080fb006e
:1071d800120020000010dd000080600000f0a70011
:1071e8000000ea000000ea004f00de000080fa001c
:0471f800000006008d
:020000040000fa
:1071fc004c08000004000000820000000100380070
:10720c004a000000420800000a0000008000000054
:10721c00aa0a00008c00000080000000000c000096
:10722c008000000080000000300800001200000008
:10723c00800000000008000030000000800000000a
:10724c0050080000b801000080000000080a00008f
:10725c00a200000080000000a40b0000420000000f
:10726c0080000000e60b000010000000820000000f
:10727c00bd37860033bd37000635bd003786360076
:10728c00bd37860037000000360b00006e00000092
:08729c0080000000000000006a
:020000040000fa
:1072a4000200fa00000f78001e0078004800de009b
:1072b4001e0f68001e0078004400de001e0f6800e8
:1072c4001e0078004200de001e0f68001e007800d9
:1072d4000000d1001e0f68001e00780000407800f6
:0c72e400614060000080fa00000006001d
:020000040000fa
:0872f0000040da000000fe007e
:00000001FF
